:020000040800F2
:1000000000040020610100084104000841040008C8
:1000100041040008410400084104000841040008AC
:10002000410400084104000841040008910300084D
:10003000410400084104000841040008410400088C
:10004000410400084104000841040008410400087C
:10005000410400084104000841040008410400086C
:10006000410400084104000841040008410400085C
:10007000410400084104000841040008410400084C
:10008000410400084104000841040008410400083C
:10009000410400084104000841040008410400082C
:1000A000410400084104000841040008410400081C
:1000B00041040008A10200084104000841040008AE
:1000C00041040008410400084104000841040008FC
:1000D00041040008410400084104000841040008EC
:1000E00041040008410400084104000841040008DC
:1000F00041040008410400084104000841040008CC
:1001000041040008410400084104000841040008BB
:1001100041040008410400084104000841040008AB
:10012000410400084104000841040008410400089B
:10013000410400084104000841040008410400088B
:10014000410400084104000841040008410400087B
:10015000410400084104000841040008410400086B
:1001600072B6224880F30988022080F31488BFF316
:100170006F8F00F0E5FC00F003FC1D481D491E4A8E
:1001800091423CBF41F8040BFAE71C49174A9142DF
:100190003CBF41F8040BFAE719491A4A1A4B9A4234
:1001A0003EBF51F8040B42F8040BF8E70020174952
:1001B000174A91423CBF41F8040BFAE700F088FC73
:1001C00000F0B6FC134C144DAC4203DA54F8041B97
:1001D0008847F9E700F03CFA104C114DAC4203DAC5
:1001E00054F8041B8847F9E700F09ABC0008002087
:1001F0005555555500000020000400200004002043
:10020000FC0B000800080020000800200008002067
:10021000C00A0020600100086001000860010008B9
:100220006001000800000000000000000000000065
:100230002DE9F04FC1F80CD0C3689D46BDE8F08FA2
:10024000002383F311882846A047002000F0E8FB34
:1002500000F01EFC00DFFEE70000000000000000D0
:1002600030B4202383F311880B4D0C4A2B684C1EAD
:10027000013B0B4412684942044403EA0100131A8B
:10028000214099429ABF091829600020002383F376
:10029000118830BC704700BF980A00200008002079
:1002A0002DE9F041324C23699B070BD4202383F3C3
:1002B0001188304B5B6813F4006342D183F31188DB
:1002C000BDE8F08100272761202585F311882A4E9B
:1002D000626AB6F826E0F36990B2CEEB00011A89A3
:1002E00089B28A4206F11C081BD81968724441453C
:1002F000F284DA68C1F80480F161DF6008BFE7606A
:1003000087F311881869904785F31188626AB6F8F7
:1003100026E0F36990B2CEEB00011A8989B28A42D5
:10032000E3D9434509D07244121A92B2012A98BF08
:1003300002220F4B024492B25A63002383F31188C6
:10034000B4E7EFF309834FF0807243F8042CA3F174
:10035000200282F30988084A1168926989689268C4
:1003600091428CBF054A064A43F8082CBDE8F0814B
:100370000004004000ED00E0500900205102000898
:10038000540200080000000000000000000000000F
:10039000EFF30983203383F30988002383F3118863
:1003A000704700BF000000000000000000000000D7
:1003B00010B4202383F3118890F82030072B0ED837
:1003C000DFE803F0280D0D2408040D08426A936845
:1003D0000133936090E80C001A60026853604FF09C
:1003E000FF34002281680E4B446280F820201B6895
:1003F0009A688A42FBD25A6800210360426010600A
:10040000586081F311885DF8044B7047436A0022FD
:100410001A60E4E7002383F311885DF8044B70470A
:100420005009002000000000000000000000000053
:10043000FEE700BF00000000000000000000000018
:10044000FEE700BF00000000000000000000000008
:1004500070B40446144B81689D690026A8686662E2
:1004600081420CD884F820601B689A689142FBD9BD
:100470005A682360626014605C6070BC70471A4602
:1004800085F82060126891688842FBD9506801267F
:1004900068602A600560556084F82060294620461F
:1004A0009C6170BCFFF7C4BE500900200000000032
:1004B000084B30B41A6899691468012581F8200046
:1004C000636082F820501C60104630BC9A61FFF7D0
:1004D000AFBE00BF50090020000000000000000077
:1004E000F0B5202387B083F311884FF6FF7398424D
:1004F0004AD0434C434F254655F81C2F7B6A0128B0
:10050000A669414998BF0220AA4205969BB2049170
:1005100060D01844E38C80B21189C31A9BB28B421D
:1005200038BF78638B4205D912685B1A11899BB278
:100530009942F9D34FF6FF70516801AE02910192D2
:100540000E605660ADF80C301189CB1A1381A0846F
:100550000820FFF7ADFF049B8BB1E369284AB34243
:100560001AD0029A019B00211360019BAB425A6092
:10057000049104D0BDF80C101A890A441A81002392
:1005800083F3118807B0F0BD0820FFF791FF002327
:1005900083F3118807B0F0BD019C0023AC42D46105
:1005A0006560049328D01748D18C426ABDF80C507E
:1005B000238992B2511A2B449BB289B28B42238178
:1005C000DDD95B1A9BB2012B98BF022313449BB267
:1005D0004363D4E7C21801AE92B24FF0000E02217D
:1005E00001950295ADF80C00E3847A63E661C7F8E3
:1005F00010E02662F960ABE7024AD360BFE700BFB4
:100600005009002000040040B10300080000000071
:100610004FF400552E4608B5074B084A9B69084C15
:100620009A61666141F27070FFF75AFF256141F2ED
:100630007070FFF755FFF4E7500900205C0B0008CD
:100640000010014000000000000000000000000059
:1006500040F69F7A4FF6FF762DE98848A74B002594
:100660004FF0FF371A691F611D61DA684FF6FF000E
:10067000DF60DD60DA69A24942F08052DA61DA694E
:10068000DFF8B4C242F00062DA610A68DFF8ACE277
:1006900042F480720A609A69DFF8A482994CDFF80C
:1006A000A4B2DFF8A49242F07D029A6101F52841DC
:1006B0004FF08832CCF80C70CCF80420CCF8002035
:1006C000CEF80C70CEF80420CEF80020C8F80C70DC
:1006D000C8F804B0C8F80020E7606260C4F8009071
:1006E000CF604A600A60DA69DFF8609242F0020285
:1006F000DA61D9F804B0844CA3F50333834A844902
:100700004BF4805BC9F804B0DFF844C2C3F828A0FA
:10071000DFF84092A7846460A560E58484F84D50BA
:1007200065662566E4638027DE6201269D61DFF849
:1007300028B26164DFF824E25D6384F84E60DD6016
:1007400067635D60A7665E6195601E604FF0005351
:1007500089F81D736F49D5602CF0030CC9F88031FE
:10076000DFF8FCA19561C9F800306B4B02F110096C
:10077000CBF800C02EF0030E04F11C0CCAF800E008
:100780001360C2F81090C2F81490C4F81CC0246022
:10079000C4F820C024648D60CA68604B10400343D5
:1007A0005F4ACB60D368DFF8BCE143F08073D3606D
:1007B000DEF80020DFF8B0C104F12C0304F158008A
:1007C00004F1540A32434FF0100B4FF0200984F823
:1007D0004C60C4F854A0C4F848C0CEF8002023618F
:1007E00081F81FB0636181F82290A361A065E06584
:1007F00085F3118862B64B4AA3699A6189F311881F
:10080000494B6169DFF864E14848DFF864B103F1FE
:10081000900203F16C0C4FF0020AC3F8A410C3F865
:100820006CE0C3F8A8001D67C3F8986083F8B15066
:10083000C3F8CC60C3F8C850C3F8C45083F8B260A2
:10084000C3F8A040C3F8AC30C3F89CC0C3F88CB068
:1008500083F8B0A003F1B80E0A6103F1BC011046A1
:10086000C3F8B8E0C3F8BC10C3F8C0106261FFF76A
:10087000EFFD85F3118889F311882D4B6169DFF84D
:10088000F4E02C4803F5807203F1DC0C83F822615C
:10089000C3F81801C3F81411C3F8FCB0C3F8E05052
:1008A000C3F8087183F820A183F82151C3F83C7183
:1008B000C3F83851C3F83451C3F81041C3F81C31A0
:1008C000C3F80CC1C3F8DCE003F594760A6103F5C4
:1008D00096711046C3F82861C3F82C11C3F8301183
:1008E0006261FFF7B5FD85F311884FF40053C8F836
:1008F00014304FF4FA60FFF7F3FDFAE700100240FE
:10090000007000400014014050090020A00A00209F
:10091000640B000800ED00E0610200080003FA0526
:10092000F0ED00E0440B0008C00900206C0B00084B
:1009300008080020740B000800080140000C01406A
:10094000001001408888388844888888002004E0A6
:10095000C30A002000E100E0980A002000500020B7
:1009600000080020001000E000040020310400080E
:10097000410200081106000800000000000000000D
:10098000234B19461A6842F001021A600B68204A8C
:100990009807FBD511461368002003F0F903136094
:1009A00050604B681A4A13F00C0FFAD111461368C5
:1009B00043F4803313600B68154A9B03FBD5114643
:1009C000536A43F0010353624B6A114A9807FBD5FF
:1009D0001146536843F4E8135360136843F080737F
:1009E00013600B680A4A9B01FBD5114610B4094BF2
:1009F000094C102054601860536843F001035360A1
:100A00004B6803F00C03042BFAD15DF8044B7047DC
:100A1000001002400020024000C41D000000000041
:100A200070B4202383F31188154B9D69AC6A05F1DE
:100A30002806B442686218BF002011D02268104B0B
:100A4000A168AA6284F820001B689A688A42FBD2D7
:100A50005A682360626014605C60AC6AB442EDD195
:100A600095F8223043B995F821309B0704D12A69C3
:100A70006B691A612A6953610F2070BCFFF718BDBA
:100A800050090020000000000000000000000000ED
:100A90000E4AF0B410689469056801270026A16821
:100AA0002B466A60156080F82070906184F82060A1
:100AB00000E01B689A688A42FBD85A682146236086
:100AC000626014605C60F0BCFFF7B2BB50090020AC
:100AD000F0B4114E002506F1800796E81A00A342F3
:100AE0000DD21A46043951F8040F42F8040BA24201
:100AF000F9D3DA43144424F0030404342344F268A1
:100B0000934203D243F8045B9342FBD31036BE42B8
:100B1000E3D3F0BC704700BF7C0B0008000000006E
:100B2000FEE700BF00000000000000000000000021
:100B3000704700BF0000000000000000000000003F
:040B4000704700BF3B
:100B44006D61696E00160020040244080C1014182C
:100B54000020212200000000626C696E6B65720047
:100B64006D61696E0000000069646C65000000003E
:100B74006E6F6E616D650000FC0B0008C00A0020FA
:100B8400C00A0020C00A0020FC0B0008000000007E
:100B94000000000000000000FC0B00080000000042
:100BA4000000000000000000FC0B00080000000032
:100BB4000000000000000000FC0B00080000000022
:100BC4000000000000000000FC0B00080000000012
:100BD4000000000000000000FC0B00080000000002
:100BE4000000000000000000FC0B000800000000F2
:080BF4000000000000000000F9
:04000005080001618D
:00000001FF
